:020000040800F2
:1000000000000120954D0008E5050008E7050008FF
:10001000E9050008EB050008ED05000800000000F8
:10002000000000000000000000000000EF050008D4
:10003000F105000800000000F3050008F5050008C0
:10004000DD4D0008DD4D0008DD4D0008DD4D0008E8
:10005000DD4D0008DD4D0008DD4D0008DD4D0008D8
:10006000DD4D0008DD4D0008DD4D0008DD4D0008C8
:10007000FD0500080D0600081D060008DD4D0008FE
:100080002D0600083D060008DD4D0008DD4D000886
:10009000DD4D0008DD4D0008DD4D0008DD4D000898
:1000A000DD4D0008DD4D0008DD4D0008DD4D000888
:1000B000DD4D0008DD4D0008DD4D0008DD4D000878
:1000C000DD4D0008DD4D0008DD4D00084D0600083F
:1000D000DD4D00085D060008DD4D0008DD4D00081F
:1000E000DD4D0008DD4D0008DD4D0008DD4D000848
:1000F000DD4D0008DD4D0008DD4D0008DD4D000838
:10010000DD4D0008DD4D0008DD4D0008DD4D000827
:10011000DD4D0008DD4D0008DD4D0008DD4D000817
:10012000DD4D0008DD4D0008DD4D0008DD4D000807
:1001300000000000000000000000000000000000BF
:1001400000000000000000000000000000000000AF
:10015000000000000000000000000000000000009F
:10016000000000000000000000000000000000008F
:10017000000000000000000000000000000000007F
:10018000000000000000000000000000000000006F
:10019000000000000000000000000000000000005F
:1001A000000000000000000000000000000000004F
:1001B000000000000000000000000000000000003F
:1001C000000000000000000000000000000000002F
:1001D000000000000000000000000000000000001F
:0401E0005FF8E0F1F3
:1001E400044B05481B1A062B02D9044B03B11847CC
:1001F400704700BF73000020700000200000000062
:1002040005490648091A891001EBD171491002D039
:10021400034B03B1184770477000002070000020A2
:100224000000000010B5064C237843B9FFF7D8FF4F
:10023400044B13B10448AFF300800123237010BDB5
:100244007000002000000000E04D000808B5084BD5
:100254001BB108490848AFF300800848036813B984
:10026400BDE80840CCE7064B002BF9D09847F7E7E8
:100274000000000074000020E04D00087000002021
:100284000000000070B50F4E0F4D761BB61018BF5E
:10029400002405D0013455F8043B9847A642F9D10F
:1002A4000A4E0B4D04F09AFD761BB61018BF0024BD
:1002B40006D0013455F8043B9847A642F9D170BDE5
:1002C40070BD00BF404E0008404E0008484E000874
:1002D400404E000870B4860746D0541E002A41D010
:1002E400CAB2034602E014F1FF343BD303F8012BF6
:1002F4009D07F8D1032C2ED9CDB245EA05250F2C44
:1003040045EA054519D9264603F11002103E0F2E81
:1003140042F8105C42F80C5C42F8085C42F8045C59
:1003240002F11002F2D8A4F1100222F00F0204F03C
:100334000F041032032C13440DD91E462246043AEE
:10034400032A46F8045BFAD8221F22F0030204327F
:10035400134404F003042CB1C9B21C4403F8011B78
:100364009C42FBD170BC704714460346C2E700BFF1
:10037400144B30B51C6883B0A26D054632B12846D3
:10038400012303B0BDE8304000F01EB850200191B5
:1003940000F050F80023A0650246036043608360C8
:1003A400C3600361436183618362C3620363436324
:1003B4008363C363036443648364C36403774362F2
:1003C4000199DCE700000020F0B418B307460D469D
:1003D40017F8016B01E0A64217D015F8014B002C69
:1003E400F9D1E6B10C4617F8015B01E0002BF9D016
:1003F40014F8013B9D42F9D155B1002307F8013CA3
:10040400064617603046F0BC704753B13846DDE706
:100414002F46F5E710680028D8D10646F2E71660A3
:10042400F0E7176006460370ECE700BF0123FFF70F
:10043400CBBF00BF024B0146186800F053B800BFA1
:1004440000000020024B0146186800F003B800BF0A
:100454000000002091B151F8043C0439002BB8BFCE
:10046400C9181F4B1A68FAB18A4230B40AD908680D
:100474000C18A24226D04A60196030BC70478B42E7
:1004840003D81A465368002BF9D1146815198D4204
:100494000DD006D808680C189C4219D04B605160E6
:1004A400EBE70C230360E8E74A60196070470968CA
:1004B4000C44111999421460DFD10ACB0C44146026
:1004C4005360DAE714685268204481E80500D3E7F2
:1004D4001C685B68204481E809005160CDE700BFD7
:1004E4008C00002070B5CC1C24F0030408340C2CC0
:1004F40038BF0C24002C06463BDBA14239D8274DDB
:10050400296851B10B681B1B04D436E013681B1B0C
:100514001AD511464A68002AF8D16968002937D0EB
:100524002146304600F03CF8431C22D0C51C25F07F
:100534000305A84205D0291A304600F031F80130ED
:1005440017D02A462C6004E00B2B0DD913601A44F3
:10055400146002F10B0020F00700131DC31A02D02F
:100564005942D15070BD70BD8A420ED053684B6061
:10057400EFE70C230020336070BD0B2B03D80A4631
:100584004B682B60E5E70A46E0E70B460A46F8E7C6
:10059400304600F005F86860C2E700BF8C00002018
:1005A40038B50023064C05460846236000F00AF8D7
:1005B400431C00D038BD2368002BFBD02B6038BD12
:1005C40010080020044A05491368002B08BF0B4695
:1005D4001844106018467047940000201808002042
:1005E4007047FEE7FEE7FEE7FEE770477047704797
:1005F40008B500F059FF08BD08B5024801F01EFE19
:1006040008BD00BFB402002008B5024801F016FE80
:1006140008BD00BFE801002008B5024801F00EFE45
:1006240008BD00BF2C02002008B5024801F006FEF8
:1006340008BD00BFA401002008B5024801F0FEFD7A
:1006440008BD00BF7002002008B5024803F078F925
:1006540008BD00BF3804002008B5024803F0BAFD05
:1006640008BD00BF4006002082B00E4B9A6942F0DC
:1006740001029A619A6902F001020092009ADA6911
:1006840042F08052DA61DB6903F080530193019BED
:10069400054A536823F0E06343F00073536002B0EB
:1006A400704700BF001002400000014030B58BB01D
:1006B4000446002306930793089309930368494A61
:1006C400934204D0484A934246D00BB030BD474BC6
:1006D4009A6942F400729A619A6902F40072009273
:1006E400009A9A6942F010029A619A6902F0100223
:1006F4000192019A9A6942F008029A619B6903F097
:1007040008030293029B3C2306930325079506A93D
:10071400374801F03BFB0695079506A9354801F0DB
:1007240035FB3548354B03600023436083608022EA
:10073400C2604FF4807202614FF4806242612022F1
:100744008261C36101F046FC18B92B4B23625C62E1
:10075400BBE704F00BFBF8E7244B9A6942F4004230
:100764009A619A6902F400420392039A9A6942F0E8
:1007740010029A619A6902F010020492049A9A692A
:1007840042F004029A619B6903F004030593059BFC
:1007940003250695079506A9154801F0F7FA0F23D6
:1007A4000693079506A9164801F0F0FA1548164B6A
:1007B40003600023436083608022C2604FF4807230
:1007C40002614FF48062426120228261C36101F0C0
:1007D40001FC18B90B4B23625C6276E704F0C6FA9D
:1007E400F8E700BF00240140003C01400010024033
:1007F40000100140000C01401C01002008000240D0
:1008040000080140600100205804024000B587B090
:10081400002302930393049305930268114B9A42B5
:1008240002D007B05DF804FB03F5CE33DA6942F079
:100834000052DA61DA6902F000520092009A9A6971
:1008440042F004029A619B6903F004030193019B43
:10085400102302930323039302A9034801F096FA99
:10086400DFE700BF007400400008014030B589B0E4
:100874000023049305930693079303682D4A934238
:1008840004D02D4A934236D009B030BD04462B4DD6
:10089400AB6943F00803AB61AB6903F00803009351
:1008A400009BC0230493122305930323079304A9F5
:1008B400234801F06BFAEB6943F40013EB61EB6935
:1008C40003F400130193019B1E481F4B0360102384
:1008D4004360002383608022C260036143618361BB
:1008E400C36101F077FB18B9164B63635C62CBE715
:1008F40004F03CFAF8E7114CA36943F00803A36140
:10090400A36903F008030293029B4FF4406304932A
:10091400122305930323079304A9094801F036FA27
:10092400E36943F48003E361E36903F4800303931D
:10093400039BA9E700540040005800400010024007
:10094400000C0140A40100206C00024002680C4B22
:100954009A4200D0704700B583B001F03FFE094BC6
:10096400DA6942F00062DA61DB6903F00063019343
:10097400019B0122044B1A6003B05DF804FB00BF25
:1009840000280040001002403C04424230B589B0C7
:100994000023049305930693079302681A4B9A4223
:1009A40001D009B030BD03F510435A6942F48062A6
:1009B4005A615A6902F480620192019A9A6942F07A
:1009C40010029A619A6902F010020292029A9A69DC
:1009D40042F020029A619B6903F020030393039B76
:1009E4004FF4F8530493022505950324079404A9AE
:1009F400064801F0CBF9042304930595079404A950
:100A0400034801F0C3F9CCE7008001400010014025
:100A14000014014070B58AB000230693079308932D
:100A240009930368514A934207D0514A93424AD0EA
:100A3400504A934271D00AB070BD04464E4B9A6935
:100A440042F480529A619A6902F480520092009AA8
:100A54009A6942F004029A619B6903F004030193CA
:100A6400019BA02306930223079303230993434E78
:100A740006A9304601F08AF940230693002507951C
:100A8400089506A9304601F081F93D483D4B0360C5
:100A94001023436085608023C360056145618561DF
:100AA400C56101F097FA58B9354BA3645C62002222
:100AB4001146232001F03CFD232001F06BFDBAE731
:100AC40004F054F9F0E72C4BDA6942F48042DA611D
:100AD400DA6902F480420292029A9A6942F00802A8
:100AE4009A619B6903F008030393039B4FF420432B
:100AF40006930223079303230993234C06A9204654
:100B040001F044F94FF480430693002307930893BC
:100B140006A9204601F03AF98DE7174BDA6942F449
:100B24000042DA61DA6902F400420492049A9A6992
:100B340042F008029A619B6903F008030593059B40
:100B44002823069302230793032309930E4C06A933
:100B5400204601F01BF91023069300230793089302
:100B640006A9204601F012F965E700BF00300140F4
:100B740000380040003C00400010024000080140E2
:100B8400E801002030000240000C014082B00368FC
:100B94000F4A934204D0B3F1804F0CD002B0704797
:100BA4000C4B9A6942F400629A619B6903F40063F6
:100BB4000093009BF2E703F50433DA6942F0010283
:100BC400DA61DB6903F001030193019BE6E700BFEF
:100BD400002C01400010024082B003680E4A934288
:100BE40004D00E4A93420CD002B070470C4BDA6921
:100BF40042F00202DA61DB6903F002030093009B16
:100C0400F2E7074BDA6942F00402DA61DB6903F0C8
:100C140004030193019BE7E700040040000800403F
:100C24000010024000B589B0002304930593069395
:100C340007930368404A93420BD0B3F1804F24D00A
:100C44003E4A934240D03E4A934258D009B05DF8A0
:100C540004FB3C4B9A6942F040029A619B6903F0A1
:100C640040030093009B4FF4007304930223059305
:100C7400079304A9344801F089F8344A536843F0CF
:100C8400E06343F0C0035360E0E703F504339A697B
:100C940042F004029A619B6903F004030193019BEF
:100CA4004FF40043049302230593079304A92848AF
:100CB40001F06CF8254A536823F4407343F0E06371
:100CC40043F480735360C1E71E4B9A6942F01002EB
:100CD4009A619B6903F010030293029B40230493DF
:100CE40002230593079304A91A4801F04FF8174A01
:100CF400536843F0E06343F440635360A6E7114B49
:100D04009A6942F020029A619B6903F020030393DD
:100D1400039B4FF48053049302230593079304A980
:100D24000D4801F033F8094A536843F0E06343F493
:100D3400805353608AE700BF002C01400004004048
:100D4400000800400010024000180140000001406B
:100D540000080140001001400014014070B58AB041
:100D640004460023069307930893099303686E4A85
:100D7400934208D06D4A93424CD06D4A934200F09E
:100D84008D800AB070BD6B4B9A6942F480429A61BF
:100D94009A6902F480420092009A9A6942F004022D
:100DA4009A619B6903F004030193019B4FF4007360
:100DB400069302230793032309935F4E06A9304643
:100DC40000F0E4FF4FF4806306930025079508952F
:100DD40006A9304600F0DAFF5848594B0360102347
:100DE400436085608023C360056145618561C56199
:100DF40001F0F0F858B9514B23635C6200221146AC
:100E0400252001F095FB252001F0C4FBB9E703F090
:100E1400ADFFF0E7474BDA6942F40032DA61DA6990
:100E240002F400320292029A9A6942F020029A6114
:100E34009B6903F020030393039B2023069302235F
:100E44000793032309933F4E06A9304600F09EFF03
:100E54004023069300250795089506A9304600F01F
:100E640095FF394A536843F0E06343F00803536045
:100E74003648374B03601023436085608023C3608A
:100E8400056145618561C56101F0A4F818B92F4B6E
:100E940023635C6275E703F069FFF8E7254BDA69C1
:100EA40042F48022DA61DA6902F480220492049A1C
:100EB4009A6942F020029A619B6903F0200305932A
:100EC400059B4FF48073069302230793032309932E
:100ED4001C4E06A9304600F059FF4FF400730693E8
:100EE40000250795089506A9304600F04FFF164ADD
:100EF400536843F0E06343F0300353601548164BE6
:100F040003601023436085608023C36005614561ED
:100F14008561C56101F05EF818B90E4B23635C620C
:100F24002FE703F023FFF8E70038014000440040B6
:100F34000048004000100240000801402C0200203C
:100F440044000240001401400000014070020020EF
:100F540080000240B40200201C000240704708B523
:100F6400436A9A6A12F0500F1ED19A6A42F40072D0
:100F74009A621A68926802F46022B2F5602F03D074
:100F84001846FFF7EBFF08BD1A7B002AF8D19A6ACE
:100F940022F480729A629A6A12F4805FF0D19A6A9B
:100FA40042F001029A62EBE71B6A1B6B984708BD8B
:100FB400704708B5406AFFF7FBFF08BD704708B5E6
:100FC400406A836A43F040038362C36A43F00403C4
:100FD400C362FFF7F3FF08BD30B482B0002301936E
:100FE40090F82430012B00F08B800246012380F816
:100FF40024304B68062B29D80568686B03EB830300
:10100400053B1F249C4020EA04000C6804FA03F307
:1010140003436B630B68092B38D91568E86803EB45
:1010240043031E3B07249C4020EA04008C6804FA16
:1010340003F30343EB600B68103B012B34D900200E
:10104400002382F8243002B030BC70470C2B0ED839
:101054000568286B03EB8303233B1F249C4020EA91
:1010640004000C6804FA03F303432B63D2E7056816
:10107400E86A03EB8303413B1F249C4020EA0400FD
:101084000C6804FA03F30343EB62C3E715682869A9
:1010940003EB430307249C4020EA04008C6804FA11
:1010A40003F303432B61C6E713681648834205D054
:1010B400936A43F0200393620120C1E7986810F417
:1010C400000F1BD1986840F4000098600B68102B47
:1010D40001D00020B4E70C4B1B680C49A1FB03139F
:1010E4009B0C03EB83035900019102E0019B013B3C
:1010F4000193019B002BF9D10020A1E700209FE779
:101104000220A0E7002401406C00002083DE1B4382
:1011140030B583B00023019303689A6812F0010F7D
:101124002ED19A6842F001029A60174B1B68174A45
:10113400A2FB03239B0C019302E0019B013B01935F
:10114400019B002BF9D1044600F0BAF90546236847
:101154009B6813F0010F11D100F0B2F9401B022873
:10116400F5D9A36A43F01003A362E36A43F00103D1
:10117400E362002384F82430012002E0002000E030
:10118400002003B030BD00BF6C00002083DE1B4391
:10119400F8B50468454DAC420AD005F58065AC420B
:1011A40006D090F82440012C09D102252846F8BD28
:1011B4003E4B5B6813F4702FF3D00125F6E7174616
:1011C4000E460446012380F82430FFF7A1FF0546AC
:1011D400002867D1A36A23F4706323F0010343F466
:1011E4008073A3622268324B9A423DD0A36A23F4EF
:1011F4008013A362536813F4806F05D0A36A23F4A9
:10120400405343F48053A362A36A13F4805F41D034
:10121400E36A23F00603E362002384F82430236A9C
:10122400244A9A62236A244ADA62236A234A1A63A2
:1012340023686FF002021A602268936843F4807393
:10124400936021683B4632464C31206A00F00EFF21
:101254002268936803F46023B3F5602F1DD093686C
:1012640043F480139360A1E7A3F580635B6813F4F0
:10127400702FBBD0A36A43F48013A3620B4B5B684B
:1012840013F4806FC0D0A36A23F4405343F4805313
:10129400A362B9E70023E362BEE7936843F4A003C3
:1012A400936083E7002384F824307FE7002401401F
:1012B40000280140630F0008B70F0008C30F00089F
:1012C40038B503689A6812F0010F01D1002038BDC7
:1012D40004469A6822F001029A6000F0F1F805468B
:1012E40023689B6813F0010F0ED000F0E9F8401B4F
:1012F4000228F5D9A36A43F01003A362E36A43F01A
:101304000103E362012038BD002038BD002800F04D
:101314008A8070B50446836A002B4DD02046FFF7BF
:10132400CFFFA36A13F0100377D1002875D1A26A06
:1013340022F4885222F0020242F00202A26265689C
:1013440021683A4A91423DD0E2692A43267B42EA27
:101354004602A568B5F5807F3ED0012D39D0257DA4
:10136400012D3CD04D6825F469452B434B60216821
:101374008D682F4B2B4013438B60A368B3F5807F9C
:101384003ED0012B3CD000232568E96A21F470018A
:101394000B43EB6223689968264B0B409A4233D087
:1013A400A36A23F0120343F01003A362E36A43F039
:1013B4000103E362012070BDC36280F82430FFF7AB
:1013C40075F9ABE7E269B2F5402FBED14FF40022C4
:1013D400BBE74FF48073C2E74FF48073BFE736B9BD
:1013E400A569013D43EA453343F40063BAE7A56ABE
:1013F40045F02005A562E56A45F00105E562B1E71F
:101404002369013B1B05BFE70023E362A36A23F0C2
:10141400030343F00103A36270BDA36A43F0100306
:10142400A362012070BD0120704700BF003C014051
:10143400FDF7E1FFFE0E1FFF10B504460E4B1878B2
:101444004FF47A73B3FBF0F30C4A1068B0FBF3F07B
:1014540001F0AEF868B90F2C01D9012010BD0022AB
:1014640021464FF0FF3001F063F8054B1C6000206B
:1014740010BD012010BD00BF640000206C000020DE
:101484006800002008B5074A136843F0100313608E
:10149400032001F03BF80020FFF7CEFFFFF7E4F84C
:1014A400002008BD00200240034A1168034B1B784A
:1014B4000B441360704700BF0C0800206400002038
:1014C400014B1868704700BF0C08002038B504466B
:1014D400FFF7F6FF0546B4F1FF3F02D0044B1B783B
:1014E4001C44FFF7EDFF401B8442FAD838BD00BF0F
:1014F4006400002082B0084B1B68084AA2FB032347
:101504005B0A00FB03F0019000BF019B5A1E01928D
:10151400002BF9D102B070476C000020D34D62104B
:10152400002800F0F58170B582B00446036813F01A
:10153400010F3DD0AB4B5B6803F00C03042B2ED0A2
:10154400A84B5B6803F00C03082B23D06368B3F546
:10155400803F51D0002B55D103F1804303F5043370
:101564001A6822F480321A601A6822F480221A60FF
:101574006368002B60D0FFF7A3FF0546994B1B68F7
:1015840013F4003F14D1FFF79BFF401B6428F5D9E7
:101594000320C2E1934B5B6813F4803FD6D0914B98
:1015A4001B6813F4003F03D06368002B00F0B28182
:1015B400236813F0020F65D08A4B5B6813F00C0F9D
:1015C4004ED0884B5B6803F00C03082B43D023698F
:1015D400002B79D00122844B1A60FFF771FF054676
:1015E400804B1B6813F0020F65D1FFF769FF401BA6
:1015F4000228F5D9032090E17A4A136843F4803332
:101604001360B5E7B3F5A02F09D0764B1A6822F41E
:1016140080321A601A6822F480221A60A8E703F163
:101624008043A3F53C331A6842F480221A601A6896
:1016340042F480321A609BE7FFF742FF0546694B8C
:101644001B6813F4003FB3D0FFF73AFF401B642834
:10165400F5D9032061E1634B5B6813F4803FB6D195
:10166400604B1B6813F0020F04D02369012B01D0D7
:10167400012052E15B4A136823F0F803616943EAED
:10168400C1031360236813F0080F32D0A369002B41
:101694006ED00122554B1A60FFF712FF0546514BDD
:1016A4005B6A13F0020F21D1FFF70AFF401B0228E7
:1016B400F5D9032031E14B4A136823F0F80361693B
:1016C40043EAC1031360DDE70022474B1A60FFF7CA
:1016D400F7FE0546434B1B6813F0020FD2D0FFF709
:1016E400EFFE401B0228F5D9032016E10120FFF785
:1016F40001FF236813F0040F00F09880394BDB6975
:1017040013F0805F46D1374BDA6942F08052DA61D8
:10171400DB6903F080530193019B0125344B1B6863
:1017240013F4807F38D0E368012B49D0002B4DD1CE
:1017340003F1804303F504331A6A22F001021A62AA
:101744001A6A22F004021A62E368002B5CD0FFF7E5
:10175400B7FE0646234B1B6A13F0020F65D1FFF751
:10176400AFFE801B41F288339842F3D90320D4E0C2
:1017740000221E4B1A60FFF7A3FE0546194B5B6A55
:1017840013F0020FB5D0FFF79BFE401B0228F5D9DA
:101794000320C2E00025C1E7154A136843F48073AF
:1017A4001360FFF78DFE0646114B1B6813F4807F10
:1017B400B9D1FFF785FE801B6428F5D90320ACE07E
:1017C400084A136A43F001031362BDE7052B11D0E5
:1017D400044B1A6A22F001021A621A6A22F0040205
:1017E4001A62B1E700100240000042428004424203
:1017F400007000404C4B1A6A42F004021A621A6AE2
:1018040042F001021A629FE7FFF75AFE0646464B72
:101814001B6A13F0020F08D0FFF752FE801B41F23F
:1018240088339842F3D9032077E0E5B9E369002BC4
:1018340072D03D4A526802F00C02082A56D0022B9C
:1018440017D00022394B1A60FFF73AFE0446364B94
:101854001B6813F0007F47D0FFF732FE001B0228FD
:10186400F5D9032059E0304AD36923F08053D3617A
:10187400DCE700222D4B1A60FFF722FE05462A4BB7
:101884001B6813F0007F06D0FFF71AFE401B0228E6
:10189400F5D9032041E0236AB3F5803F1AD02249E9
:1018A4004B6823F47413226A606A024313434B6047
:1018B40001221E4B1A60FFF703FE04461A4B1B68F5
:1018C40013F0007F0ED1FFF7FBFD001B0228F5D9B2
:1018D400032022E0144A536823F40033A1680B4325
:1018E4005360DCE7002018E0002016E0012B16D03E
:1018F4000D4B5B6803F48031226A914201D00120D0
:101904000BE003F47013626A93420AD0012004E0EE
:1019140001207047012000E0002002B070BD0120CA
:10192400FBE70020F9E700BF0010024060004242DC
:1019340010B586B0184C94E80F000DF1180E0EE99E
:101944000F00238AADF80430144B5B6803F00C02DB
:10195400042A03D0082A04D0114800E0114806B034
:1019640010BDC3F3834206A90A4412F8102C13F4E1
:10197400803F0CD0094B5B68C3F340430B4413F81E
:10198400143C084800FB02F0B0FBF3F0E7E706481C
:1019940000FB02F0E3E700BFF84D0008001002402E
:1019A40000127A00808D5B0000093D00002800F0E1
:1019B400A38070B50446524B1B6803F007038B42A7
:1019C4000CD24F4A136823F007030B4313601368C8
:1019D40003F00703994201D0012070BD236813F07E
:1019E400020F17D013F0040F04D0464A536843F48F
:1019F400E0635360236813F0080F04D0414A53682E
:101A040043F4605353603F4A536823F0F003A068E3
:101A1400034353600D46236813F0010F31D063680C
:101A2400012B20D0022B25D0364A126812F0020F67
:101A340064D034494A6822F0030213434B60FFF731
:101A44003FFD06462F4B5B6803F00C036268B3EB63
:101A5400820F16D0FFF734FD801B41F28833984281
:101A6400F0D9032070BD274A126812F4003FE0D178
:101A7400012070BD234A126812F0007FD9D10120E1
:101A840070BD1F4B1B6803F007039D420CD21C4A18
:101A9400136823F007032B431360136803F0070351
:101AA4009D4201D0012070BD236813F0040F06D0BD
:101AB400144A536823F4E063E1680B4353602368DA
:101AC40013F0080F07D00F4A536823F460532169B9
:101AD40043EAC1035360FFF72BFF0A4B5B68C3F370
:101AE4000313094AD35CD840084B1860084B1868A4
:101AF400FFF7A2FC002070BD01207047012070BDDB
:101B04000020024000100240204E00086C0000201B
:101B140068000020014B1868704700BF6C0000206B
:101B240008B5FFF7F7FF044B5B68C3F30223034ACE
:101B3400D35CD84008BD00BF00100240304E0008FE
:101B440008B5FFF7E7FF044B5B68C3F3C223034AFE
:101B5400D35CD84008BD00BF00100240304E0008DE
:101B640070B582B00446036813F0010F34D03E4BC5
:101B7400DB6913F0805F48D13B4BDA6942F0805255
:101B8400DA61DB6903F080530193019B0125374B34
:101B94001B6813F4807F3AD0334B1B6A13F44073F1
:101BA40011D0626802F4407293420CD02E4A136A38
:101BB40023F440702E4901260E6000260E60106248
:101BC40013F0010F37D1284A136A23F44073616874
:101BD4000B431362002D3FD1236813F0020F06D08C
:101BE400214A536823F44043A1680B43536023689C
:101BF40013F0100F35D01C4A536823F48003616935
:101C04000B435360002002B070BD0025BFE7174AA4
:101C1400136843F480731360FFF752FC0646134BBA
:101C24001B6813F4807FB7D1FFF74AFC801B64283C
:101C3400F5D90320E7E7FFF743FC06460A4B1B6A86
:101C440013F0020FBFD1FFF73BFC801B41F2883336
:101C54009842F3D90320D6E7D36923F08053D361A4
:101C6400BAE70020CFE700BF001002400070004038
:101C74004004424230B587B005463F4C94E80F001B
:101C84000DF1180E0EE90F00238AADF80430681E1A
:101C94000F2869D8DFE800F0395D68326868683673
:101CA4006868686868686808344B5A681B6813F089
:101CB400807F5BD0C2F3834306A90B4413F8100C56
:101CC40012F4803F16D02D4B5B68C3F340430B44A2
:101CD40013F8142C2A4BB3FBF2F303FB00F0274B4D
:101CE4005B6813F4800F0BD14000264BA3FB00303C
:101CF400400805E0244B03FB00F0F0E7FFF718FE73
:101D040007B030BDFFF714FEFAE71C4B1B6A40F224
:101D140002321A40B2F5817F2AD003F44073B3F53E
:101D2400007F04D0B3F5407F09D00020E8E7134AD0
:101D3400526A12F0020FF5D049F64040E0E70F4B2B
:101D44001B6813F4003F02D04BF21B70D8E700204D
:101D5400D6E7FFF7F5FE094B5B68C3F38133013324
:101D64005B00B0FBF3F0CBE70020C9E70020C7E736
:101D74004FF40040C4E700BF0C4E000800100240BE
:101D8400808D5B00ABAAAAAA00093D00F0B583B020
:101D94000026344679E0002D00F0AA80012D00D100
:101DA400CE68FF2B00F2B8808646FF2B00F2B78086
:101DB400A500DEF800200F27AF4022EA070206FA4A
:101DC40005F52A43CEF800204A6812F0805F5BD004
:101DD400684A956945F001059561926902F001022E
:101DE4000192019AA208971C634D55F8275004F0FC
:101DF40003074FEA870E0F2707FA0EF725EA0705B0
:101E04005E4FB84200F0918007F58067B84200F059
:101E14008E8007F58067B84200F08B8007F58067F5
:101E2400B84200F0888007F58067B84200F08580EA
:101E340007F58067B84276D0062707FA0EF73D43C8
:101E440002324D4F47F822504A6812F4803F76D050
:101E54004B4D2A681A432A604A6812F4003F74D032
:101E6400474D6A681A436A604A6812F4801F72D048
:101E7400434DAA681A43AA604A6812F4001F70D03E
:101E84003F4DEA681343EB6001340B6833FA04F204
:101E94006DD00122A24013409A42F5D14D68122D13
:101EA40030D00BD8022D2AD07FF675AF032D2FD05A
:101EB400112D7FF476AFCE68043672E7314FBD4200
:101EC40016D00CD9304FBD4212D007F58037BD4231
:101ED4000ED0A7F58017BD427FF463AF08E0A7F5E5
:101EE4008017BD4204D007F58037BD427FF459AF57
:101EF4008D687DB1012D08D04261082651E7CE6876
:101F040008364EE7CE680C364BE70261082648E7F0
:101F1400002646E7042644E700F1040E45E7A4F151
:101F24000805AD0045E7052787E7002785E7012772
:101F340083E7022781E703277FE704277DE7104D26
:101F44002A6822EA03022A6086E70D4D6A6822EABB
:101F540003026A6088E70A4DAA6822EA0302AA60BB
:101F64008AE7074DEA6822EA0303EB608CE703B0D3
:101F7400F0BD00BF00100240000001400008014015
:101F840000040140000021100000311012B90904BE
:101F94000161704701617047C3680B4201D101615F
:101FA40070474161704770B4C56B066C0124B4403E
:101FB4006C60046863604368102B05D00368996003
:101FC4000368DA6070BC704703689A600368D9607C
:101FD400F8E7000000283BD010B4034601681D4A0E
:101FE40091422AD81C4A0A441C49A1FB0212120934
:101FF400920002641A4AC263022283F821201868FC
:10200400016821F47F5121F030015A689C68224311
:10201400DC6822431C6922435C6922439C69224395
:10202400DC6922430A43026000209863012283F89A
:10203400212083F8200010BC70470A4A0A4407494B
:10204400A1FB0212120992000264074AC263D3E799
:102054000120704707040240F8FFFDBFCDCCCCCC73
:1020640000000240F8FBFDBF0004024038B590F8C0
:102074002040012C32D0012480F8204090F82140E7
:10208400012C04D0002380F82030022038BD0446FF
:10209400022084F821000020A0632568286820F02D
:1020A400010028602046FFF77EFFE36A5BB12268E7
:1020B400136843F00E0313602268136843F00103AE
:1020C4001360002038BD2268136823F004031360F2
:1020D4002268136843F00A031360EDE7022038BD59
:1020E40008B590F82130022B03D004238363012028
:1020F40008BD0268136823F00E03136002681368B6
:1021040023F0010313600368484A934248D9783A9C
:10211400934221D0143293422DD0143293422CD0C6
:10212400143293422CD0143293422CD01432934262
:102134002CD002F5677293422BD0143293422AD0EA
:102144001432934229D01432934202D04FF4803295
:1021540003E04FF4805200E00122354B5A60012322
:1021640080F82130002380F82030436B002B5BD0B3
:102174009847002008BD1022EFE74FF48072ECE787
:102184004FF48052E9E74FF48032E6E74FF48012CF
:10219400E3E70122E1E71022DFE74FF48072DCE796
:1021A400244A934224D01432934225D014329342C9
:1021B40024D01432934224D01432934224D01432C3
:1021C400934224D01432934224D002F56272934293
:1021D40023D01432934222D01432934221D01432A9
:1021E400934202D04FF4803203E04FF4805200E077
:1021F4000122114B5A60B2E71022FAE74FF48072C1
:10220400F7E74FF48052F4E74FF48032F1E74FF4EC
:102214008012EEE74FF08072EBE70122E9E710222B
:10222400E7E74FF48072E4E7002008BD8000024035
:1022340000040240080002400000024038B5C36BAD
:102244001A6804682568016C04238B401A4200F064
:10225400978015F0040F00F09380236813F0200F8B
:1022640003D1236823F0040323600368A34A934241
:1022740042D9783A934221D01432934227D014326F
:10228400934226D01432934226D01432934226D05D
:102294001432934226D002F56772934225D0143249
:1022A400934224D01432934223D01432934202D066
:1022B4004FF4802203E04FF4804200E00422904B6C
:1022C4005A60C36A002B00F01781984738BD40223A
:1022D400F5E74FF48062F2E74FF48042EFE74FF402
:1022E4008022ECE74FF48002E9E70422E7E740228A
:1022F400E5E74FF48062E2E7824A934224D0143245
:10230400934225D01432934224D01432934224D0E1
:102314001432934224D01432934224D01432934280
:1023240024D002F56272934223D01432934222D015
:102334001432934221D01432934202D04FF48022BB
:1023440003E04FF4804200E004226F4B5A60B8E788
:102354004022FAE74FF48062F7E74FF48042F4E753
:102364004FF48022F1E74FF48002EEE74FF08062F1
:10237400EBE70422E9E74022E7E74FF48062E4E771
:1023840002238B401A4200F09C8015F0020F00F0EB
:102394009880236813F0200F06D1236823F00A03E2
:1023A4002360012380F821300368544A934244D9BE
:1023B400783A934221D01432934229D01432934272
:1023C40028D01432934228D01432934228D01432A5
:1023D400934228D002F56772934227D01432934275
:1023E40026D01432934225D01432934202D04FF4B3
:1023F400003203E04FF4005200E00222404B5A60E6
:10240400002380F82030836A002B75D0984738BDAC
:102414002022F3E74FF40072F0E74FF40052EDE7A7
:102424004FF40032EAE74FF40012E7E70222E5E74F
:102434002022E3E74FF40072E0E7324A934224D0CB
:102444001432934225D01432934224D0143293424E
:1024540024D01432934224D01432934224D0143220
:10246400934224D002F56272934223D014329342F1
:1024740022D01432934221D01432934202D04FF42A
:10248400003203E04FF4005200E002221E4B5A6077
:10249400B6E72022FAE74FF40072F7E74FF4005250
:1024A400F4E74FF40032F1E74FF40012EEE74FF097
:1024B4000072EBE70222E9E72022E7E74FF400721B
:1024C400E4E7082303FA01F10A4215D015F0080FD6
:1024D40012D0236823F00E032360C16B026C012326
:1024E40003FA02F24A60836380F82130002380F803
:1024F4002030036B03B1984738BD00BF8000024011
:10250400000402400800024000000240074AD36869
:1025140023F4E0631B041B0C000200F4E060184386
:1025240040F0BF6040F40030D060704700ED00E040
:1025340030B4164BDB68C3F30223C3F10704042C45
:1025440028BF04241D1D062D17D9033B012505FAB8
:1025540004F4013C2140994005FA03F3013B134084
:10256400194300280BDB0901C9B200F1604000F5F2
:10257400614080F8001330BC70470023E6E700F0A8
:102584000F000901C9B2024B1954F4E700ED00E051
:1025940014ED00E0002808DB420900F01F000123CD
:1025A40003FA00F0014B43F82200704700E100E019
:1025B4000138B0F1807F0AD2064B5860F021064AF8
:1025C40082F823100020986007221A6070470120C7
:1025D400704700BF10E000E000ED00E00122014B75
:1025E4001A60704720000E4270B110B5044603799A
:1025F40033B102232371002020610123237110BD14
:102604004371FEF703F9F4E70120704770B444798D
:10261400012C23D001254571022303710668346817
:1026240002F0100340F6FE729A4024EA02020C689B
:102634004968214399400A43326004682168C022F2
:102644009A40D24311402160036819680A401A6015
:10265400057100234371184670BC70470220FBE7E4
:10266400002800F0BE80F8B5044690F83D30002BF9
:102674006BD0242384F83D302268136823F00103CF
:102684001360FFF74DFA6268584B9A4262D8584B70
:1026940098428CBF00230123002B40F0A480554BAB
:1026A400A3FB00239A0C21684B6823F03F031343D8
:1026B4004B602568296A21F03F0166684B4B9E42B6
:1026C4004ED8531C0B432B622268D16921F44F412D
:1026D40021F0FF016368454DAB424BD801385B00E4
:1026E400B0FBF3F30133C3F30B03042B38BF042310
:1026F4000B43D36121680B6823F0C003E269206AAD
:10270400024313430B6021688B6823F4034323F0D3
:10271400FF032269E068024313438B602168CB689E
:1027240023F0FF036269A06902431343CB6022686C
:10273400136843F00103136000202064202384F80D
:102744003D30206384F83E00F8BD80F83C30FEF74D
:102754008DF88EE7284B98428CBF002301239BE71A
:102764004FF4967303FB02F3244AA2FB03239B0951
:102774000133A7E7A668BEB9451E03EB4307B5FBC3
:10278400F7F50135C5F30B05B5FA85F56D0935BBCC
:10279400C6B9013803EB4303B0FBF3F30133C3F3CE
:1027A4000B0343F40043A3E7451E03EB830707EB46
:1027B4008707B5FBF7F50135C5F30B05B5FA85F5C4
:1027C4006D09E4E7013803EB830303EB8303B0FBF8
:1027D400F3F30133C3F30B0343F4404388E70123CA
:1027E40086E7012070470120F8BD00BFA0860100E4
:1027F4007F841E0083DE1B43FF083D00D34D62101F
:1028040030B402689469A5B2D369916988B28542EB
:1028140005D0D06980B240EA014030BC704798B21C
:1028240040EA0440F9E70368186A5B6A9BB243EA2A
:1028340000407047030903EB83035A0000F00F00C4
:102844001044C0B27047000010B400F5FA640229C5
:1028540020D901EB4103C1EBC3011F4BA3FB0113BF
:1028640002EB5303234403EB94031C4AA2FB04240A
:10287400A3EB541303EBD41302331948A0FB032036
:102884001A1A00EB52008008C0EBC000181AC0B23C
:1028940010BC704701EB4103C1EBC3010E4BA3FB1A
:1028A400013102EB5102A31800F2CF7003EB900345
:1028B4000A4AA2FB0020A3EB501303EBD01304330A
:1028C4000748A0FB03201A1A00EB52008008C0EB53
:1028D400C000181ADBE700BF398EE3381F85EB51BF
:1028E4002549922438B50446FEF7EAFD05462368D7
:1028F4005A6812F0200F07D1FEF7E2FD401BB0F535
:102904007A7FF4D9032038BD5A6842F010025A6025
:10291400002038BD38B504460268536823F010031C
:102924005360FEF7CDFD054623685B6813F0200F66
:1029340007D1FEF7C5FD401BB0F57A7FF4D903201B
:1029440038BD002038BD38B505460C46FFF7CAFF30
:1029540010B10123184638BD2B68220C9A612B68EC
:10296400A4B2DC612846FFF7D5FF03460028F1D066
:102974000123EFE738B505460C46FFF7B3FF10B166
:102984000123184638BD2B68220C1A622B68A4B2A6
:102994005C622846FFF7BEFF03460028F1D00123FE
:1029A400EFE770B5002856D00446002955D0037CC3
:1029B400012B54D00E460123037402234374B2B98D
:1029C4000D784B78C3EB03139A004FF4616303FB58
:1029D40005258B781D4429462046FFF7B4FF06469B
:1029E400C0B10423637400232374012638E00878FB
:1029F400FFF720FF4FF4616505FB00F57078FFF7E2
:102A040019FFC0EB001083001D44B078FFF712FFDC
:102A14000544E0E72268536823F005035360204629
:102A2400FFF701FFB0F1FF3F01D0854204D8012335
:102A340063740023237413E000F5A83101F5C07119
:102A44002046FFF797FF0028F1D004236374002386
:102A54002374012604E0012602E0012600E0022698
:102A6400304670BD00285DD038B5044600295BD0DF
:102A7400037C012B5AD00D460123037402234374B3
:102A8400D2B9CB78C3734B7843738B788373A27BAF
:102A9400617BE07BFFF7D8FE207328702046FFF7A8
:102AA400AFFE234BA3FB0023B3F5484F11D2012300
:102AB40063740020207438BDC878FFF7BBFEE07350
:102AC4006878FFF7B7FE6073A878FFF7B3FEA073CA
:102AD400DDE7184DA5FB00352D0C174B03FB150541
:102AE40029462046FFF72FFF28B1042363740023EF
:102AF4002374012038BD2046FFF795FEB0F1FF3F57
:102B0400D5D08542D3D900F5A83101F5C07120464E
:102B1400FFF730FF0028CAD0042363740023237412
:102B2400012038BD01207047012038BD022038BD86
:102B3400C5B3A29107452EC280510100C0B138B57A
:102B440004460268536823F008035360FEF7B8FC98
:102B5400054623685B6813F0080F07D1FEF7B0FC45
:102B6400401BB0F57A7FF4D9032038BD002038BD6E
:102B74000120704700285AD010B50446437C53B155
:102B8400022363742046FFF7D9FF40B10423637422
:102B94000123184610BD0374FDF7D8FEF0E7204664
:102BA400FFF7A0FE002830D12268536823F0070302
:102BB4005360A36823B11F4A136B23F0010313630B
:102BC4001C4AD36A23F46073A1680B43D362606820
:102BD400B0F1FF3F1DD02268936823F00F0343EA4E
:102BE400104393602268D3681B0C1B0480B2034318
:102BF400D3602046FFF78EFE0346A0B90022E2739D
:102C040001226273A2736274C3E704236374012311
:102C1400BFE70120FFF72EF808B10138DBE70423F2
:102C240063740123B5E7042363740123B1E701232B
:102C340018467047006C00400B4B1B680B4AA2FB04
:102C440003235A0A41F2883303FB02F35A1E43B1A9
:102C5400416B134611F0800FF8D0C5238363002025
:102C640070474FF0004070476C000020D34D621055
:102C7400154B1B68154AA2FB03235A0A41F28833F9
:102C840003FB02F35A1EDBB1416B134611F0450FEF
:102C9400F8D011F4006FF5D1436B13F0040F03D097
:102CA4000423836318467047436B13F0010F03D169
:102CB400C52383630020704701238363184670474C
:102CC4004FF00040704700BF6C000020D34D6210ED
:102CD400114B1B68114AA2FB03235A0A41F28833A1
:102CE40003FB02F35A1E9BB1416B134611F0450FCF
:102CF400F8D011F4006FF5D1436B13F0040F03D037
:102D04000423836318467047C523836300207047F8
:102D14004FF00040704700BF6C000020D34D62109C
:102D2400184B1B68184AA2FB03235A0A41F2883342
:102D340003FB02F35A1EFBB1416B134611F0450F1E
:102D4400F8D011F4006FF5D1436B13F0040F03D0E6
:102D54000423836318467047436B13F0010F07D1B4
:102D6400436B13F0400F0AD0402383630020704765
:102D740001238363184670474FF0004070470020DA
:102D8400704700BF6C000020D34D621084B010B4B3
:102D940002AC84E80E00039A0B461343049A1343CF
:102DA400059A1343069A1343079A1343426822F47D
:102DB400FD4222F07F0213434360002010BC04B0A4
:102DC4007047D0F88000704708B5032303600220E1
:102DD400FEF77CFB002008BD006800F0030070478C
:102DE4000B6883604B688A681343CA6813430A6993
:102DF4001343C26822F47F6222F00F021343C360BC
:102E0400002070470069C0B27047143040587047C2
:102E140038B5524B1B68524CA4FB03435B0A02FBBC
:102E240003F2531E002A62D0446B1A4614F0450F75
:102E3400F7D014F4006FF4D1436B13F0040F03D0F4
:102E440004238363184638BD436B13F0010F03D08A
:102E540001238363184638BD0D460446C5238363A6
:102E6400FFF7D0FFA84201D0012038BD0021204641
:102E7400FFF7CBFF3B4B0340E3B300283CDB10F0F0
:102E8400804F3CD110F0005F01D0802038BD10F09D
:102E9400805F36D110F0006F36D110F0806F36D1DC
:102EA40010F0807F36D110F4000F36D110F4800F6B
:102EB40036D110F4001F36D110F4801F36D110F42F
:102EC400802F36D110F4003F36D110F4803F36D134
:102ED40010F4004F36D110F4804F36D110F4005F57
:102EE40036D110F0080F36D04FF4000038BD4FF043
:102EF400004038BD002038BD4FF0007038BD402080
:102F040038BD4FF4807038BD4FF4007038BD4FF4B5
:102F1400806038BD4FF4006038BD4FF4805038BD38
:102F24004FF4005038BD4FF4804038BD4FF400409A
:102F340038BD4FF4003038BD4FF4802038BD4FF415
:102F4400002038BD4FF4801038BD4FF4001038BD58
:102F54004FF4800038BD4FF4803038BD6C00002041
:102F6400D34D621008E0FFFD70B5264B1B68264C5C
:102F7400A4FB03435C0A41F2883303FB04F35C1EA5
:102F8400002B39D0456B234615F0450FF7D015F4C7
:102F9400006FF4D1436B13F0040F03D00423836355
:102FA400184670BD436B13F0010F03D001238363F4
:102FB400184670BD16460D460446FFF723FFA84287
:102FC40001D0012070BDC523A36300212046FFF773
:102FD4001CFF10F4604F05D010F4804F06D04FF45E
:102FE400005070BD000C3080002070BD10F4004F04
:102FF40005D04FF4805070BD4FF0004070BD4FF4C9
:10300400803070BD6C000020D34D62100B684362A9
:103014004B6883628B68CA6813430A6913434A691D
:103024001343C26A22F0F7021343C36200207047BD
:1030340030B587B0054601911024029440230393D0
:10304400002304934FF48063059301A9FFF7C8FE9E
:1030540041F2883221462846FFF7DAFE07B030BD38
:1030640030B587B0054601920724029440230393A8
:10307400002304934FF48063059301A9FFF7B0FE86
:1030840041F2883221462846FFF7C2FE07B030BD20
:1030940010B586B00446002301930293039304936E
:1030A4004FF48063059301A9FFF79AFE2046FFF7CA
:1030B400C3FD06B010BD10B586B004464FF4D573F9
:1030C40001930823029340230393002304934FF4B2
:1030D4008063059301A9FFF783FE2046FFF720FED6
:1030E40006B010BD30B587B005460191372402946F
:1030F40040230393002304934FF48063059301A9B1
:10310400FFF76EFE41F2883221462846FFF780FE23
:1031140007B030BD10B586B0044641F0004141F41B
:1031240080110191292302934023039300230493E4
:103134004FF48063059301A9FFF752FE2046FFF781
:10314400C7FD06B010BD30B587B005460191062411
:10315400029440230393002304934FF48063059364
:1031640001A9FFF73DFE41F2883221462846FFF7C8
:103174004FFE07B030BD30B587B00546002301933C
:10318400332402944022039204934FF48063059302
:1031940001A9FFF725FE41F2883221462846FFF7B0
:1031A40037FE07B030BD10B586B004460023019346
:1031B40002220292C022039204934FF48063059387
:1031C40001A9FFF70DFE2046FFF752FD06B010BD22
:1031D40010B586B00446019109230293C0230393DA
:1031E400002304934FF48063059301A9FFF7F8FDCE
:1031F4002046FFF73DFD06B010BD70B586B005460C
:103204000E46002301930324029440220392049364
:103214004FF48063059301A9FFF7E2FD324621468E
:103224002846FFF7A1FE06B070BD000070B582B05D
:103234000446002301930068FFF72AFF064610B1F5
:10324400304602B070BD2068FFF735FF38B901235E
:10325400A364A36C012B0BD03546304614E0002345
:10326400A3642068FFF714FF0028F2D00646E7E7BE
:1032740000212068FFF736FF0028EDD04FF080567C
:10328400DEE7019B01330193019A4FF6FE739A42E4
:1032940013D895B900212068FFF724FFF0B912492B
:1032A4002068FFF737FF0546D0B900212068FFF7F3
:1032B400ACFDC30FE5D01D46E3E7019A4FF6FE735C
:1032C4009A4202D94FF08076BAE710F0804F02D1CB
:1032D40000236364B4E701236364B1E70646AFE700
:1032E4004FF08056ACE700BF000010C12DE9F0415B
:1032F40088B004460F46FEF7E3F806460023009321
:10330400019308212068FFF793FE054618B128466B
:1033140008B0BDE8F081216D09042068FFF7E2FEE2
:1033240005460028F3D14FF0FF330293082303939B
:103334003023049302230593002306930123079368
:1033440002A92068FFF762FE2068FFF714FF054614
:103354000028DCD1804605E0FEF7B2F8801BB0F10E
:10336400FF3F43D02068426B40F22A431A420AD1FD
:10337400436B13F4001FEFD0FFF723FD4DF8280033
:1033840008F10108E8E7436B13F0080F02D00825A1
:103394008563BCE7436B13F0020F02D002258563FB
:1033A400B5E7436B13F0200F02D020258563AEE709
:1033B40040F23A538363019A130203F47F0343EA0E
:1033C4000263110A01F47F410B4343EA12633B6039
:1033D400009A130203F47F0343EA0263110A01F41F
:1033E4007F410B4343EA12637B6090E74FF0004553
:1033F4008DE710B582B00446002100910191006868
:10340400FFF703FD10F0007F04D04FF4006318466B
:1034140002B010BD69462046FFF768FF0346002846
:10342400F5D1019B13F4802F02D14FF08063EEE7B6
:10343400216D09042068FFF755FE03460028E6D1F4
:1034440002212068FFF77FFE0346E0E710B582B053
:1034540004460021009101910068FFF7D6FC10F0AA
:10346400007F04D04FF40063184602B010BD6946D3
:103474002046FFF73BFF03460028F5D1019B13F4D8
:10348400803F02D14FF08063EEE7216D090420688C
:10349400FFF728FE03460028E6D100212068FFF745
:1034A40052FE0346E0E7000010B4436E9B0F0B701E
:1034B400436EC3F383634B7090F8673003F00303E8
:1034C4008B7090F86630CB7090F865300B7190F883
:1034D40064304B71836E1B0DCB80B0F86A3003F0FF
:1034E4000F030B72836EC3F3C0334B72836EC3F34B
:1034F40080338B72836EC3F34033CB72836EC3F31A
:1035040000330B7300234B73436C002B40F0878014
:10351400826E40F6FC7303EA8203C26E43EA92733E
:103524000B61C36EC3F3C2630B7590F86F3003F085
:1035340007034B75C36EC3F342538B75C36EC3F35A
:103544008243CB75C36EC3F3C2330B760B6901336D
:1035540043650A7E02F00702023203FA02F2426570
:103564000B7A03F00F040123A34083655B0A03FB7A
:1035740002F3C3654FF400730366C36EC3F3803371
:103584004B76C36EC3F3C6138B76C36E03F07F030F
:10359400CB76036FDB0F0B77036FC3F341734B776A
:1035A400036FC3F382638B77036FC3F38353CB77C8
:1035B400036FC3F3405381F82030002381F8213096
:1035C400B0F8722002F0010281F82220026FC2F3E7
:1035D400C03281F82320026FC2F3803281F82420A4
:1035E400026FC2F3403281F82520026FC2F3003229
:1035F40081F82620026FC2F3812281F82720026F0E
:10360400C2F3012281F82820026FC2F3460281F836
:103614002920012281F82A20184610BC7047012B6A
:103624000BD003680E4A9A63836B43F08053836321
:10363400012380F834301846EFE7836E1B0403F44B
:103644007C13B0F86E2013430B610B6901339B02AA
:103654004365C3654FF40073836503668DE700BF5C
:10366400FF05400070B590B004460123ADF8123058
:103674000068FFF7B1FB20B94FF08065284610B011
:1036840070BD636C032B1AD02068FFF78CFD0546D0
:103694000028F3D100212068FFF7B7FB60670421FD
:1036A4002068FFF7B2FBA06708212068FFF7ADFB95
:1036B400E0670C212068FFF7A8FBC4F88000636C66
:1036C400032B07D00DF112012068FFF796FD054684
:1036D4000028D3D1636C032B1DD0BDF812102165D3
:1036E40009042068FFF774FD05460028C6D10021AF
:1036F4002068FFF78AFB606604212068FFF785FBDA
:10370400A06608212068FFF780FBE0660C21206892
:10371400FFF77BFB206704212068FFF776FB000D91
:10372400E06405A92046FFF7BFFE10B14FF08055B5
:10373400A4E7226D120400232068FFF791FC0546DC
:1037440000289BD1234653F8106B93E807008DE8BB
:103754000700043494E80E003046FFF717FB8DE7AA
:1037640070B58AB005460023049305930693079326
:103774000893762309930AAB13E907008DE8070041
:1037840004AB0ECB2868FFF701FB18B101242046D7
:103794000AB070BD0446104E002333602868FFF75A
:1037A40013FB012333602846FFF740FD034630B185
:1037B400012485F83440AA6B1343AB63E7E728463A
:1037C400FFF750FF03460028E1D0012485F8344078
:1037D400AA6B1343AB63DAE7A0003042C0B110B563
:1037E400044690F834307BB1032384F83430204607
:1037F400FFF7B6FF034670B90022A26322630122D9
:1038040084F83420184610BD0377FDF7BFF8EBE7C2
:103814000123184670470123F4E7000030B58BB04C
:1038240004460D46032380F83430436C032B25D023
:10383400B1F5805F11D0B1F5006F13D0C1B1836BC6
:1038440043F000638363A36BEBB123681B4A9A6361
:10385400012084F834000BB030BD836B43F08053F7
:103864008363F0E7FFF7C5FDA36B1843A063EAE7A2
:10387400FFF7ECFDA36B1843A063E4E7836B43F00D
:1038840080538363DFE763680493A3680593E36865
:103894000693079563690893A36909930AAB13E92F
:1038A40007008DE8070004AB0ECB2068FFF76EFA23
:1038B400012384F834300020CDE700BFFF05400029
:1038C400002839D010B504460023836290F85130A3
:1038D400002B2CD0022384F851302268136823F083
:1038E4004003136022686368A1680B43E1680B43DB
:1038F40021690B4361690B43A16901F400710B4316
:10390400E1690B43216A0B43A16A0B4313602268EC
:10391400638B03F0040353602268D36923F40063C8
:10392400D36100206065012384F8513010BD80F814
:103934005030FDF76FF8CDE7012070477047000065
:1039440010B584B0044602685168936803F04100DE
:1039540001285AD013F0020F02D011F0800F5BD16E
:1039640013F0600F5BD011F0200F58D013F0400F0C
:103974000FD094F85100C0B2032852D0606D40F0CB
:103984000400606500200190D06801909068019067
:10399400019813F0200F0CD0636D43F001036365AD
:1039A4000023039393680393136823F04003136085
:1039B400039B636D002B32D02268536823F0E0032D
:1039C4005360012384F8513011F0030F31D0226881
:1039D400536823F003035360E36C4BB1174A5A63F3
:1039E400E06CFEF77DFB18B1636D43F04003636543
:1039F400A36CA3B1114A5A63A06CFEF771FB70B1BA
:103A0400636D43F04003636509E011F0400FA1D0FA
:103A1400236C2046984702E0636C2046984704B024
:103A240010BD00230293D368029393680293029B10
:103A3400F5E72046FFF782FFF1E700BF453A0008AB
:103A440008B5406A0023C387C386FFF777FF08BD24
:103A540030B4036A23F001030362036A4468826991
:103A640022F073020D682A4323F002038D682B436E
:103A7400114DA84211D005F50065A8420DD00E4D98
:103A8400A84211D005F50065A8420DD044608261BA
:103A94004A684263036230BC704723F00803CD6870
:103AA4002B4323F00403EAE724F440744D692C43C8
:103AB4008D692C43EAE700BF002C014030B4036A4F
:103AC40023F480730362036A4468C26922F07302B8
:103AD4000D682A4323F400738D6843EA0523134DCC
:103AE400A84211D005F50065A8420DD00F4DA8429B
:103AF40012D005F50065A8420ED04460C2614A6840
:103B0400C263036230BC704723F40063CD6843EAA8
:103B1400052323F48063E9E724F440544D6944EA1F
:103B240005148D6944EA0514E7E700BF002C014041
:103B340030B4036A23F480530362036A4468C2699D
:103B440022F4E6420D6842EA052223F400538D680C
:103B540043EA0533094DA8420AD005F50065A84299
:103B640006D04460C2614A680264036230BC704794
:103B740024F480444D6944EA8514F2E7002C0140A2
:103B84000368254A904212D002F5006290420ED09A
:103B9400B0F1804F0BD0A2F59832904207D002F5D5
:103BA4008062904203D002F58062904203D123F0F8
:103BB40070034A681343184A904212D002F5006217
:103BC40090420ED0B0F1804F0BD0A2F598329042C3
:103BD40007D002F58062904203D002F580629042E1
:103BE40003D123F44073CA68134323F080034A6962
:103BF400134303608B68C3620B688362064B98426D
:103C040006D003F50063984202D001234361704754
:103C14000B690363F9E700BF002C0140A8B110B59C
:103C2400044690F83D305BB1022384F83D30211DF9
:103C34002068FFF7A5FF012384F83D30002010BD64
:103C440080F83C30FCF7A2FFEEE701207047A8B1F2
:103C540010B5044690F83D305BB1022384F83D3042
:103C6400211D2068FFF78CFF012384F83D300020DC
:103C740010BD80F83C30FCF7AFFFEEE70120704741
:103C840030B4036A23F010030362036A4468826950
:103C940022F4E6420D6842EA052223F020038D68EF
:103CA40043EA0513124DA84211D005F50065A84258
:103CB4000DD00F4DA84212D005F50065A8420ED0D4
:103CC400446082614A688263036230BC704723F0B7
:103CD4008003CD6843EA051323F04003E9E724F4A5
:103CE40040644D6944EA85048D6944EA8504E7E744
:103CF400002C014090F83C30012B28D010B504462C
:103D0400012380F83C30022380F83D300C2A0BD884
:103D1400DFE802F0070A0A0A110A0A0A150A0A0A5F
:103D240019000068FFF794FE012384F83D30002059
:103D340084F83C0010BD0068FFF7A2FFF4E70068B8
:103D4400FFF7BCFEF0E70068FFF7F2FEECE70220A5
:103D5400704738B590F83C30012B66D00D460446C8
:103D6400012380F83C30022380F83D300C2A1AD815
:103D7400DFE802F00719191920191919341919194A
:103D840047000068FFF764FE2268936943F0080364
:103D940093612268936923F0040393612268936911
:103DA40029690B439361012384F83D30002084F892
:103DB4003C0038BD0068FFF763FF2268936943F451
:103DC400006393612268936923F48063936122689A
:103DD4009369296943EA01239361E4E70068FFF7E3
:103DE4006DFE2268D36943F00803D3612268D36966
:103DF40023F00403D3612268D36929690B43D36197
:103E0400D1E70068FFF794FE2268D36943F40063A6
:103E1400D3612268D36923F48063D3612268D369B0
:103E2400296943EA0123D361BDE7022038BD90F834
:103E34003C30012B1CD070B4012580F83C50022387
:103E440080F83D3004686268A36822F070020E684E
:103E5400324323F0800349680B4362600268936035
:103E640080F83D50002380F83C30184670BC704701
:103E74000220704790F83C30012B22D0012380F8B7
:103E84003C30CB6823F440738A68134323F4806383
:103E94004A68134323F400630A68134323F48053EA
:103EA4000A69134323F400534A69134323F48043F8
:103EB400CA69134302685364002380F83C301846EF
:103EC4007047022070470268D36823F49073D3606C
:103ED4000268536923F001035361202380F83A30C8
:103EE400704790F83930DBB2212B01D002207047A3
:103EF4008368B3F5805F17D00268036A591C0162B6
:103F04001B785360C38C9BB2013B9BB2C384DBB967
:103F14000268D36823F08003D3600268D36843F057
:103F24004003D36000207047036A02681B88C3F310
:103F34000803536003691BB9036A02330362E1E7B0
:103F4400036A01330362DDE70020704738B5044695
:103F54000268136923F44053C1680B4313618368F7
:103F640002691343426913430168CA6822F4B052D8
:103F740022F00C021343CB600268536923F44073AC
:103F840081690B4353610268214B9A421FD0FDF7AC
:103F9400C7FD216800EB800000EB800063689B0094
:103FA400B0FBF3F01B4DA5FB00325409642202FB65
:103FB400140213013233A5FB03235B0903F0F0025F
:103FC40002EB041203F00F0313448B6038BDFDF7BA
:103FD400B7FD216800EB800000EB800063689B0064
:103FE400B0FBF3F00B4DA5FB00325409642202FB35
:103FF400140213013233A5FB03235B0903F0F0021F
:1040040002EB041203F00F0313448B6038BD00BFAE
:10401400003801401F85EB5158B310B5044690F8A1
:1040240039300BB3242384F839302268D36823F45D
:104034000053D3602046FFF789FF2268136923F4F5
:10404400904313612268536923F02A035361226861
:10405400D36843F40053D3600020E063202384F842
:10406400393084F83A3010BD80F83830FCF776FEE9
:10407400D8E70120704790F83930DBB2202B01D00B
:1040840002207047A9B1B2B190F83830012B14D096
:1040940001628284C2840023C363212280F8392010
:1040A40080F838300168CA6842F08002CA60184655
:1040B400704701207047012070470220704790F834
:1040C4003A30DBB2202B01D002207047F9B102B3A1
:1040D40090F83830012B1ED081628285C28500237E
:1040E400C363222280F83A2080F838300168CA6815
:1040F40042F48072CA6001684A6942F001024A616E
:104104000168CA6842F02002CA601846704701205C
:104114007047012070470220704708B50168CB68DA
:1041240023F04003CB60202380F8393000F0EAFD0F
:10413400002008BD08B590F83A30DBB2222B01D03C
:10414400022008BD8368B3F5805F0FD003690BBB01
:10415400836A5A1C8262026852681A70C38D9BB2C9
:10416400013B9BB2C385F3B1002008BD826A036999
:1041740043B903685B68C3F308031380836A02339B
:104184008362EBE703685B68DBB21380836A013305
:104194008362E3E7826A531C836203685B6803F00B
:1041A4007F031370DAE70268D36823F02003D36037
:1041B4000268D36823F48073D3600268536923F0E0
:1041C40001035361202380F83A3000F06BFD002096
:1041D40008BD704710B5044602681368D168526977
:1041E40013F00F0005D113F0200F02D011F0200FAF
:1041F40053D1002867D012F0010202D111F4907F4C
:1042040061D013F0010F06D011F4807F03D0E06B6E
:1042140040F00100E06313F0040F04D01AB1E06B26
:1042240040F00200E06313F0020F04D01AB1E06B17
:1042340040F00400E06313F0080F04D01AB1E26BFD
:1042440042F00802E263E26B002A48D013F0200F28
:1042540002D011F0200F24D123685B6903F04003DE
:10426400E26B12F0080F00D13BB32046FFF72BFEA0
:1042740023685A6912F0400F1BD05A6922F0400299
:104284005A61636B8BB11A4A5A63606BFDF728FF5E
:1042940028B3606B436B984710BD2046FFF74AFF75
:1042A40010BD2046FFF746FFD6E72046FFF791FFF3
:1042B40010BD2046FFF78DFF10BD2046FFF789FF94
:1042C4000023E36310BD13F0800F02D011F0800FC0
:1042D40006D113F0400F02D011F0400F04D110BDED
:1042E4002046FFF7FEFD10BD2046FFF716FFF6E758
:1042F400F942000808B5406A0023C385C384FFF768
:1043040068FF08BD0F4B1A6842F001021A60596831
:104314000D4A0A405A601A6822F0847222F48032EC
:104324001A601A6822F480221A605A6822F4FE0283
:104334005A604FF41F029A604FF00062034B9A6078
:10434400704700BF001002400000FFF800ED00E0DD
:104354002DE9F04F8BB00024069407940894099437
:10436400554B9A6942F040029A619A6902F0400200
:104374000192019A9A6942F010029A619A6902F0D4
:1043840010020292029A9A6942F004029A619A69AE
:1043940002F004020392039A9A6942F008029A61B5
:1043A4009A6902F008020492049A9A6942F020027F
:1043B4009A619B6903F020030593059B3F4F2246B6
:1043C40041F204013846FDF7E1FDDFF8F4A022468E
:1043D4004FF680515046FDF7D9FDDFF8E8802246BC
:1043E4004EF60B414046FDF7D1FDDFF8DC90224646
:1043F40080214846FDF7CAFDDFF8D0B022464FF4CD
:1044040080715846FDF7C2FD7F23069307940894F4
:1044140006A95046FDF7BAFC4FF46043069307948F
:10442400089406A94846FDF7B1FC41F2040306933B
:104434000126079608940225099506A93846FDF732
:10444400A5FC4FF68053069307960894099506A990
:104454005046FDF79BFC4EF60B43069307960894D3
:10446400099506A94046FDF791FC8023069307961B
:104474000894099506A94846FDF788FC4FF4807313
:10448400069307960894099506A95846FDF77EFCFD
:10449400902306930794089406A94046FDF776FCFA
:1044A4004FF4407306930794089406A93846FDF721
:1044B4006DFC0BB0BDE8F08F00100240000C014011
:1044C40000180140001401400010014000080140A0
:1044D40000B583B01A4B5A6942F001025A615B6914
:1044E40003F001030193019B002211460C20FEF707
:1044F4001FF80C20FEF74EF8002211460D20FEF79F
:1045040017F80D20FEF746F8002211460E20FEF79C
:104514000FF80E20FEF73EF8002211461020FEF799
:1045240007F81020FEF736F8002211461120FDF797
:10453400FFFF1120FEF72EF803B05DF804FB00BF67
:104544000010024070B584B00023019302930393DA
:10455400214C224A22604FF48072A2600125257307
:1045640023754FF46022E2616360062626612046CB
:10457400FCF7CCFE082301930295039501A920467C
:10458400FCF72AFD092301930223029301A9204683
:10459400FCF722FD0C2301930323029301A9204677
:1045A400FCF71AFD0D230193042302930DEB030181
:1045B4002046FCF711FD0E2301930523029301A964
:1045C4002046FCF709FD0F230193029601A920461A
:1045D400FCF702FD04B070BDA800002000240140D7
:1045E400F0B585B000250195029503951F4C204B2D
:1045F40023604FF48073A3600126267325754FF45E
:104604006023E3616560062727612046FCF77EFE90
:1046140001950296039601A92046FCF7DDFC01965C
:104624000225029501A92046FCF7D6FC0195032535
:10463400029501A92046FCF7CFFC019504230293BF
:104644000DEB03012046FCF7C7FC0A230193052365
:10465400029301A92046FCF7BFFC0B2301930297A8
:1046640001A92046FCF7B8FC05B0F0BDD800002035
:10467400003C014030B583B0002400940194074D00
:10468400074B2B602846FDF7AFFF009401942246A8
:1046940069462846FDF7BAFF03B030BD0801002083
:1046A4000074004008B50948094B0360094B436096
:1046B40000238360C3604FF48042026143618361DD
:1046C400C3610362FDF7CCFF08BD00BFF802002000
:1046D40000540040A086010008B50948094B036056
:1046E400094B436000238360C3604FF4804202613E
:1046F40043618361C3610362FDF7B2FF08BD00BF7C
:104704004C03002000580040A086010030B583B05F
:104714000024ADF804408DF806400094124D134B6C
:104724002B604FF0FF336B604FF48073AB6028460F
:10473400FEF720FA8DF804408DF805408DF8064008
:10474400012201A92846FEF72CF901228DF8002048
:104754008DF801208DF802208DF803406946284623
:10476400FEF780F903B030BDA0030020002800400C
:1047740010B5094C094B236000236360A360E36018
:1047840023616361A3612046FFF728F84FF40061B9
:104794002046FFF743F810BDB40300200080014019
:1047A40008B50C480C4B03604FF48273436000233C
:1047B4008360C360036143614FF400728261082225
:1047C400C2610362436283620A23C362FFF778F81B
:1047D40008BD00BF380400200030014008B50B4874
:1047E4000B4B03604FF48273436000238360C36008
:1047F400036143614FF400728261C36103624362E7
:1048040083620A23C362FFF75BF808BD90040020AB
:104814000038004008B50B480B4B03604FF482731B
:10482400436000238360C360036143614FF40072FB
:104834008261C3610362436283620A23C362FFF736
:104844003FF808BDE8040020003C004030B593B0B8
:1048540000241094119409940A940B940C940D94CC
:104864000E940F942022214601A8FBF733FD184D26
:10487400184B2B606C60AC60EC602C616C61AC61BB
:104884002846FFF7CBF91094119410A92846FFF796
:10489400CEFA09940A940B940C940D940E940F94EC
:1048A400224609A92846FFF725FA019402940394A5
:1048B400049405944FF400530693089401A92846E0
:1048C400FFF7D8FA2846FCF7ADF913B030BD00BFA6
:1048D40040050020002C014030B58BB00024089422
:1048E40009940194029403940494059406940794FF
:1048F4000F4D4FF080432B606C60AC60EC602C611A
:10490400AC612846FFF78AF90894099408A9284657
:10491400FFF78DFA0194029403940594224601A9A9
:104924002846FFF7E7F92846FCF77CF90BB030BDC1
:104934008005002030B58BB00024089409940194BC
:104944000294039404940594069407940F4D104B19
:104954002B606C60AC60EC602C61AC612846FFF7A6
:1049640076F90894099408A92846FFF760FA6023A9
:104974000193029403940594224601A92846FFF763
:10498400E8F92846FCF74EF90BB030BDC00500200D
:104994000004004030B58BB00024089409940194BD
:1049A4000294039404940594069407940F4D104BB9
:1049B4002B606C60AC60EC602C61AC612846FFF746
:1049C40046F90894099408A92846FFF730FA6023A9
:1049D4000193029403940594224601A92846FFF703
:1049E400B8F92846FCF71EF90BB030BD00060020CC
:1049F4000008004008B50848084B03604FF4E13351
:104A0400436000238360C36003610C2242618361BD
:104A1400C361FFF701FB08BD4006002000380140D8
:104A240008B50848084B03604FF4E13343600023A2
:104A34008360C36003610C2242618361C361FFF739
:104A4400EBFA08BD800600200044004008B5084881
:104A5400084B03604FF4E133436000238360C36079
:104A640003610C2242618361C361FFF7D5FA08BD7B
:104A7400C006002000480040012800D0704708B557
:104A84004FF6FF73994200D008BD00237F2B04DC4E
:104A940000210D4AD1540133F8E70B4A002382F870
:104AA400803082F8813082F88230084A13707F2B7C
:104AB40005DC064A1A44002151700133F7E7044823
:104AC40000F05CF9E0E700BF88070020040700203D
:104AD4000007002030B597B0282200210CA8FBF76E
:104AE400F9FB00240794089409940A940B94019404
:104AF400029403940494059406940A230C930123CA
:104B04001093102211921293022513954FF46013FF
:104B140015930CA8FCF704FD0F230793089509943B
:104B24004FF480630A930B94294607A8FCF73EFFD1
:104B3400032301934FF4007302934FF44043039310
:104B440001A8FDF70DF817B030BD000070B586B0B0
:104B5400FCF798FCFFF7BEFFFFF7FAFBFFF7B8FC82
:104B6400FFF7F0FCFFF73CFDFFF784FDFFF79AFD2C
:104B7400FFF7B2FDFFF7CAFDFFF7FAFDFFF710FEDE
:104B8400FFF72CFEFFF746FEFFF760FEFFF7A4FEDB
:104B9400FFF7D0FEFFF7FEFEFFF72CFFFFF740FF05
:104BA400FFF754FF00250495022302930124039484
:104BB400059302A93148FDF7E9F822463049314806
:104BC400FFF77DFA304B1D70304B1D7006223049C3
:104BD4003048FCF7DDFAFCF773FC401BB0F57A7F34
:104BE4002AD82A4B1B787BBB274B1B78002BF2D18E
:104BF400294A92F8813092F88020934236D0264A8E
:104C0400D15C8DF807100133594203F07F0301F0A2
:104C14007F0158BF4B4282F88130002382F88230F2
:104C2400002BD8D101220DF107011648FFF723FA12
:104C34000122154B1A70CEE702211048FDF7ACF99A
:104C4400FCF73EFC0546CCE70024104B1C70134EC9
:104C5400711C134800F094F8347023467F2BC3DC96
:104C64000E4A1A44002151700133F7E70A4A92F8B8
:104C74008220002AC3D14FF0FF33D1E7001801404E
:104C8400850700204006002086070020A40000209D
:104C940098000020D8000020880700200407002086
:104CA4000007002038B5144B1D78144B1A78511C9A
:104CB400197013445D70124991F88040631C5A4284
:104CC40003F07F0302F07F0258BF534291F8822021
:104CD40062B9DBB20A460D5581F8803091F8811033
:104CE4008B4214BF0023012382F88230012202493F
:104CF400FFF7E5F938BD00BF850700200407002051
:104D04008807002000B583B0164A92F8813092F8E3
:104D14008020934217D0134AD15C8DF807100133D9
:104D2400594203F07F0301F07F0158BF4B4282F8E0
:104D34008130002382F882306BB100220A4B1A7052
:104D440003B05DF804FB074A92F88220002AE2D1FE
:104D54004FF0FF33F0E701220DF10701FFF78BF964
:104D6400EEE700BF8807002086070020704708B5DB
:104D74004FF6FF710120FFF77FFE08BD704700006A
:104D840008B508460149FBF7F3FA08BD384E000898
:104D9400002103E00B4B5B58435004310A480B4B92
:104DA40042189A42F6D30A4A02E0002342F8043B2E
:104DB400084B9A42F9D3FFF7A5FAFBF763FAFFF71A
:104DC400C5FE70474C4E0008000000207000002013
:104DD4007000002014080020FEE70000F8B500BFB2
:104DE400F8BC08BC9E467047F8B500BFF8BC08BCC8
:044DF4009E46704720
:104DF80002030405060708090A0B0C0D0E0F101014
:104E08000102000002030405060708090A0B0C0D3D
:104E18000E0F10100102000000000000000000004A
:104E28000102030406070809000000000102030448
:084E380020000000430000000F
:084E400051020008734D000847
:044E48002902000833
:104E4C000400002000000000000000000000000032
:104E5C000000000000000000000000000000000046
:104E6C00000000003C4E00080000000000000000A4
:104E7C000000000000000000000000000000000026
:104E8C000000000000000000000000000000000016
:104E9C000000000000000000000000000000000006
:104EAC000000000001000000100000000024F400CD
:0400000508004D950D
:00000001FF
